:020000040800F2
:1000000050190020F9230008D10A0008D30A00087B
:10001000D70A0008DB0A0008DF0A00080000000019
:10002000000000000000000000000000E30A0008DB
:10003000E50A000800000000E70A0008E90A0008D5
:1000400013240008132400081324000813240008B4
:1000500013240008132400081324000813240008A4
:1000600013240008EB0A00081324000813240008D6
:100070001324000813240008132400081324000884
:100080001324000813240008132400081324000874
:100090001324000813240008132400081324000864
:1000A0001324000813240008132400081324000854
:1000B0001324000813240008132400081324000844
:1000C0001324000813240008132400081324000834
:1000D00013240008C90D0008132400081324000885
:1000E0001324000813240008132400081324000814
:1000F0001324000813240008132400081324000804
:1001000013240008132400081324000813240008F3
:1001100013240008132400081324000813240008E3
:1001200013240008132400081324000813240008D3
:10013000DFF80CD003F070F900480047C702000850
:1001400050190020F0B591B00024FB480078012838
:1001500062D10026002517E0F848F94A1278815C40
:1001600028466A1CD5B201AA1154F54A1278501CCF
:10017000C21700EB92629211A0EB8212F04B1A7040
:100180003F2D00DB06E000BFED480078ED4909781F
:100190008842E1D100BF002001A94855002433E086
:1001A00001A8005D52282ED101A9601C085C4928D5
:1001B00029D1A01C085C532825D1E01C085C4B28E1
:1001C00021D1201D085C3A281DD1601DA8421ADAF1
:1001D0000F5C302F16DB342F14DCA7F13000C6B2D1
:1001E000D94806700120D9490870052E09DAD84887
:1001F00050F826101022D74802F0A1FD0020D54962
:10020000087404E000BF641CA81EA042C8DC00BF44
:100210000020C949087000BF11B0F0BD10B5CB482F
:100220000078C0B1CCA20121042000F0ECFFC94A43
:100230000121042000F0E7FFCCA20121052000F0FD
:10024000E2FF0123C04802780D21052000F0DCFF09
:100250000020BE49087010BD10B500F0D3FFC7A242
:100260000121084600F0CFFFC8A20121022000F0C2
:10027000CAFFC7A20821022000F0C5FFC5A20121C4
:10028000032000F0C0FFC5A20821032000F0BBFF3F
:10029000C3A20121042000F0B6FFAFA20121052076
:1002A00000F0B1FF10BD10B5C0A20221012000F086
:1002B000AAFF10BDFFF7D0FFFFF7F5FF02E06420B3
:1002C00000F0E5FCFBE796B04FF00009BB4903C91D
:1002D000CDE90E0100200C900D90B949087000F096
:1002E00090FF00F08FFF00F089FF4FF4E13000F045
:1002F0001FFD012240F22551B24801F064FE252085
:10030000002809DB00F01F02012191404209920000
:1003100002F1E022C2F8001100BFAB48AB4908600F
:100320000020AB4908604FF4FA70AA490860002029
:10033000A94908604DE000BFA84800680128FBD02B
:10034000A749072000F05BFFA54800788007800BD5
:10035000A349497840EA0120A14989780843A14985
:100360009D4A126841F822009D48C0788007800BA2
:100370009B49097940EA01209949497908439A49FA
:10038000954A126841F8220096489349096850F846
:1003900021008E490968884206D292488E49096830
:1003A00050F82100894908608E488B49096850F847
:1003B000210087490968884206D98A488649096820
:1003C00050F821008249086083480068401C824937
:1003D0000860814800687F4909688842ABDB814832
:1003E0007D49096850F821008049086080488149AA
:1003F000814A824BCDE9002102907A4A7548016812
:10040000794800F0FDFEFFF727FFFFF74CFF00F0F3
:10041000D9FB7B4800687B4B7B4A8121009013A865
:1004200002F06DFC76480068784B794A8121009093
:1004300010A802F064FC0421764801F036FA0A2084
:1004400000F0DAFB102000F064FE0A2000F0D4FB7C
:100450000421704801F027FA02216E4801F023FAC6
:1004600004216C4801F021FA2BE30024FFF76AFE17
:10047000FFF7D4FE6848008864283DDA5949664889
:100480000088643051F82000634A128841F8220045
:10049000554961480088643051F820005E4A12884E
:1004A00041F822004F495C480088643051F8200030
:1004B00046490968884207D24A495748008864304B
:1004C00051F820004149086046495348008864308B
:1004D00051F820003E490968884207D941494E48F1
:1004E0000088643051F82000394908604A48008883
:1004F000401C49490880D6E147480088C8281ADAD4
:100500004548008800F5967085B2681E354951F857
:1005100020003649086003E0641C012000F06CFBF9
:100520002E480068012802D1B4F57A7FF4D3B4F5DF
:100530007A7F74D3C5E206E152000020C410002087
:1005400050000020510000206800002069000020B9
:1005500054000020151100202020202020202020E1
:100560002020202020202020000000005269736BF2
:10057000204C6576656C3A200000000048522F53ED
:10058000504F32204D6F6E69746F720048523A00BE
:1005900042504D0053504F323A00000025000000F9
:1005A0004F48205269736B3A000000004D6561733B
:1005B0007572696E672E2E2E0000000054420008EE
:1005C0007400002000380140FFFF030014000020E9
:1005D000180000200000002020000020308121426F
:1005E0002C00002090080020C00000201C000020EB
:1005F000100000200C000020080000200400002053
:1006000078000020341100205040000838130020EA
:100610004C3E00080008014034000020FFE7FE497E
:10062000072000F0ECFDFC4800788007800BFA49B9
:10063000497840EA0120F84989780843F74941F8A8
:100640002500F548C0788007800BF349097940EA16
:100650000120F14949790843F14941F82500EF4863
:1006600050F82500EF490968884233D9EB4951F821
:100670002510EC4A1268881A02F03EFCEA4908602C
:10068000EA490968EA4A1268881A02F035FC064607
:100690003146E548006802F0E8FBE3490860E549B7
:1006A000E148006802F0AFFBDF49086008460068D7
:1006B00002F027FCE0490968081ADF49086008468B
:1006C0000068002801DA002001E0DB480068DA4910
:1006D000086032E0D14951F82510D24A1268501A08
:1006E00002F00AFCD0490860D0490968D04A126873
:1006F000881A02F001FC06463146CB48006802F039
:10070000B4FBC9490860CB49C748006802F07BFBCD
:10071000C54908600846006802F0F3FBC64909684D
:100720000844C549086008460068FF2801DDFF202D
:1007300001E0C1480068C0490860C0480088401C0A
:10074000BE490880AFE0BE48BE49BF4ABF4BCDE9B5
:1007500000210290B14ABE480168B14800F050FD46
:10076000B748007801280AD1B6480068782806DA28
:10077000B4480068002802DDB248006800E00020AC
:10078000B4490870B048007801280AD1AF48006821
:10079000652806DAAD480068002802DDAB4800682D
:1007A00000E00020AC490870AA48007800280BDD62
:1007B000AA480068A74909780844A8490860A848D9
:1007C0000088401CA6490880A348007800280BDD5B
:1007D000A4480068A04909780844A2490860A248D2
:1007E0000088401CA04908809D48008800280DDD35
:1007F0009B48008802F080FB05469848006802F09C
:100800007BFB0646294602F030FB00E000209749BA
:1008100008609548008800280DDD9348008802F0A4
:100820006BFB05468F48006802F066FB06462946CA
:1008300002F01BFB00E000208D4908608B48006837
:1008400002F078FB054603232A460521022000F02A
:10085000DBFC8748006802F06DFB054603232A464F
:100860000721184600F0D0FC7D480088B0F57A7F5B
:1008700004DC7D480088B0F57A7F08DD00207749E8
:100880000860774908807749086077490880002028
:100890006A49088077486649086000206349086013
:1008A0000120754908707548007801287ED1744987
:1008B000096881F4000002F01FFB72490860724869
:1008C000724A036813A801F0A9FD7149096881F40F
:1008D000000002F011FB6F4908606B486E4A036824
:1008E00010A801F09BFD0F9802F006FB05466A4830
:1008F0000168284602F050FB04D26748006802F005
:1009000019FB0F900D9802F0F7FA0546624801684E
:10091000284602F037FB04D25F48006802F00AFB69
:100920000D905E4840685D490860084680684860F0
:100930005948006802F0FEFA584988600320BAFB63
:10094000F0F00C99081A55494968884201D20120F3
:1009500000E0002051490968504A5268914201D292
:10096000012100E0002108404C4989684B4A526847
:10097000914201D2012100E00021084068B14849BC
:100980000988880002F0AFFA05462946454802F07A
:100990006CFA834600204249088009F10109B9F543
:1009A000FA6F10D90F980E900D9800E085E00C902A
:1009B0004FF0FF300F9000200D900E990C98A0EB97
:1009C000010A4FF00009584602F0C8FA05460E46E3
:1009D0003148006802F0AEFA0B902C48006802F033
:1009E000A9FA0A902248006802F0B8FA0746884639
:1009F0001E48006802F0B2FACDE90656CDE90801BA
:100A0000DDE90A01CDE90278CDE90401DDE908015B
:100A1000CDE90001104847E02C000020900800209C
:100A2000C00000201C00002028000020180000202A
:100A30001400002000007F43240000203400002028
:100A4000100000200C0000200800002004000020FE
:100A50000000002032000020330000203800002079
:100A60003C000020400000204400002048000020FE
:100A70004C000020FFFF030036000020740000201F
:100A80006C000020800000207800002084000020FE
:100A900070000020880000208C0000202811002019
:100AA0007600002000606A47027806480178064810
:100AB00002F052FD002005490870642000F09CF807
:100AC00000BFD2E4320000205C4200087400002025
:100AD000704700BFFEE700BFFEE700BFFEE700BFB4
:100AE000FEE770477047704770473EB5082001F039
:100AF00000F8002406E0FF2000F00BFB0DF80400D6
:100B0000601CC4B2092CF6DB00201B4908601B499D
:100B100008609DF803001849096841EA0040164939
:100B200008609DF80400096841EA00201249086045
:100B30009DF80500096808430F4908609DF8060004
:100B40000E49096841EA00400C4908609DF8070019
:100B5000096841EA0020094908609DF80800096811
:100B600008430649086006480088401C044908807C
:100B70000120044908703EBD6C0000207000002078
:100B8000760000207400002008B50121402000F00C
:100B900019FD3020ADF8000003208DF80200102070
:100BA0008DF803006946064800F0D0FD1021044886
:100BB00000F079FE2021024800F075FE08BD00001B
:100BC0000018014010B5C82000F073F8FFF7DCFFF3
:100BD0004FF4E13000F0ACF800F034F900F004FB21
:100BE00000F066FA00F07EF910BD704700BF411EAC
:100BF000C9B2081EFBD17047002100BF082100BF09
:100C00004A1ED2B2111EFBD1421ED2B2101EF5D125
:100C10007047002100BF0F2100BF4A1ED2B2111E33
:100C2000FBD1421E92B2101EF5D1704700BF0721C2
:100C300000BF0B2200BF531E9BB21A1EFBD14B1EDE
:100C40009BB2191EF5D1431EDBB2181EEFD17047BF
:100C500000BF422100BF1E2200BF531EDBB21A1E7E
:100C6000FBD14B1EDBB2191EF5D1431EDBB2181EA1
:100C7000EFD17047652000BF582100BF4A1E92B2D5
:100C8000111EFBD1421E92B2101EF5D1704700BF5B
:100C9000772100BF432200BF531E9BB21A1EFBD117
:100CA0004B1E9BB2191EF5D1431EDBB2181EEFD1AD
:100CB000704700BF40F2712100BF3F2200BF531EAA
:100CC0009BB21A1EFBD14B1E9BB2191EF5D1431EBF
:100CD000DBB2181EEED1704700BF4FF47A7100BF2F
:100CE00040F2012200BF531E9BB21A1EFBD14B1EC5
:100CF0009BB2191EF4D1431EDBB2181EEDD1704712
:100D000001B502E00098401E009000980028F9D13B
:100D100008BD000000BF704700BF444A128802F0BF
:100D20004002002AF9D0C2B2404B1B1D1A80704706
:100D300010B586B00446012144F2040000F042FCE4
:100D40004FF40070ADF8140003208DF81600182041
:100D50008DF8170005A9364800F0F8FC4FF48060C4
:100D6000ADF8140004208DF8170005A9304800F0F4
:100D7000EDFC25208DF8000003208DF801008DF892
:100D8000020001208DF80300684600F044FA019447
:100D90000020ADF80800ADF80A00ADF80C00ADF881
:100DA00010000C20ADF80E0001A9204801F073F8E6
:100DB000012240F225511D4801F005F901211B488F
:100DC00001F0F5F806B010BD10B540F225511748F6
:100DD00001F0DEF940B3154801F05AF9C4B2202CF5
:100DE00016DB7E2C14DC134A1278501CC21700EB61
:100DF00092629211A0EB8212D1B20F480078814228
:100E000005D00E480B4A127884540A48017006E057
:100E10000A2C01D00D2C02D101200949087040F2A2
:100E20002551024801F0DEF910BD000000380140F4
:100E3000000801405100002050000020C410002094
:100E40005200002008B50121042000F0BBFB072060
:100E5000ADF8000003208DF8020010208DF803008B
:100E600069468E4800F072FC08BD70B505460C4618
:100E700004218A4800F019FD284600F04AF90A20AA
:100E8000FFF7BAFE002000F044F90A20FFF7B4FE95
:100E9000204600F03EF90A20FFF7AEFE04217F480D
:100EA00000F001FD70BD70B5044604217B4800F0E0
:100EB000FCFC204600F02DF90A20FFF79DFE0020E3
:100EC00000F027F90A20FFF797FEFF2000F021F934
:100ED00005460A20FFF790FE0421704800F0E3FC6D
:100EE000284670BD10B502216C4800F0DCFC0421DE
:100EF0006A4800F0D8FC0121684800F0D6FC1420B4
:100F0000FFF7EAFE0121654800F0CDFC1420FFF751
:100F1000E3FE0121614800F0C8FC0A20FFF76CFEE7
:100F200001215E4800F0BFFC1420FFF7D5FE02212E
:100F30005A4800F0BAFC0421584800F0B6FC0A20D8
:100F4000FFF75AFE112000F0E4F80A20FFF754FEE4
:100F50000421524800F0A7FC2020FFF7A4FF04461C
:100F60000AE021464EA002F0F7FA2020FFF79BFF8F
:100F700004461420FFF7B0FE732CF2D10A20FFF7CD
:100F80003BFEE0214220FFF770FF0A20FFF77FFEC3
:100F900001214120FFF769FF0A20FFF72DFEF02114
:100FA0004320FFF762FF0A20FFF726FE602144205E
:100FB000FFF75BFF0A20FFF71FFE00214520FFF728
:100FC00054FF0A20FFF718FEEF214620FFF74DFFE0
:100FD0000A20FFF711FE0F214720FFF746FF0A20E6
:100FE000FFF70AFE00214820FFF73FFF0A20FFF726
:100FF00003FEEA214920FFF738FF0A20FFF7FCFD36
:1010000003214A20FFF731FF0A20FFF7F5FD0C21ED
:101010004B20FFF72AFF0A20FFF7EEFD10BD70B549
:10102000054604211D4800F040FC0A20FFF7E4FDBE
:10103000102000F06EF80A20FFF7DEFD04211748AB
:1010400000F031FC0221154800F02DFC00BF082102
:10105000124800F00EFC0128F9D004210F4800F0DE
:1010600024FC0A20FFF7C8FD002406E0FF2000F062
:1010700050F828706D1C601CC4B2092CF6DB0221EC
:10108000064800F012FC112000F043F80A20FFF798
:10109000B3FD0421014800F006FC70BD00080140CA
:1010A0004552524F522049443A253032780D0A00B9
:1010B00008B5012141F2040000F084FAE020ADF807
:1010C000000018208DF8030003208DF80200694607
:1010D000254800F03BFBE021234800F0E4FB002022
:1010E000224908804FF48270488000208880C880A0
:1010F0000120088140024881202088810020C88189
:1011000008821B4800F024FD0121194800F0C5FDAC
:1011100008BD70B50546002407E0601C84B244F6A3
:101120002060844201DD002070BD0221104800F0E3
:1011300038FE0028F1D029460D4800F0DFFD0024DC
:1011400007E0601C84B244F62060844201DD002088
:10115000EAE70121064800F024FE0028F1D0044807
:1011600000F0CEFDC0B2DFE7000801403C150020D2
:101170000030014008B50121052000F023FA0820C5
:10118000ADF8000003208DF8020048208DF8030020
:101190006946194800F0DAFA08BD1CB503210020A1
:1011A00000F0EAFB0820009000208DF804000C20DD
:1011B0008DF8050001208DF80600684600F022FC3D
:1011C0001CBD08B54FF4A06000F020F809208DF890
:1011D000000001208DF801008DF802008DF8030059
:1011E000684600F018F808BD10B5FFF7C3FFFFF719
:1011F000E8FFFFF7D2FF10BD0008014070477047BD
:10120000704770477047704770470000314901438D
:10121000314A1160704770B5002100230F22C47855
:1012200004B32D4C246804F4E064C4F5E064210A9E
:10123000C1F10403CA40447804FA03F184781440ED
:1012400021430901254C0678A155047804F01F05B7
:101250000124AC4005786D11AD0005F1E025C5F81D
:10126000004109E0047804F01F050124AC401C4D46
:101270000678761145F8264070BD1A4A0A400243A6
:10128000154B1B1F1A60704739B1134A121D1268A3
:101290000243114B1B1D1A6006E00F4A121D126813
:1012A00082430D4B1B1D1A607047042808D14FF074
:1012B000E021096941F004014FF0E022116107E0EB
:1012C0004FF0E021096921F004014FF0E0221161A3
:1012D000704700000000FA050CED00E000E400E0BB
:1012E00080E100E080FFFF1FDF48006840F0010060
:1012F000DD49086008464068DC490840DA49486032
:1013000008460068DA490840D7490860084600687E
:1013100020F4802008600846406820F4FE00486001
:101320004FF41F0088607047CF49096821F480316D
:10133000CD4A11601146096821F480211160B0F591
:10134000803F03D0B0F5802F0ED106E0C649096872
:1013500041F48031C44A116007E0C349096841F48F
:10136000A021C14A116000E000BF00BF704710B566
:1013700001460022002300204A11012A02D1BA4C62
:10138000236806E0022A02D1B74C236A01E0B64C7A
:10139000636A01F01F02012494401C400CB101203B
:1013A00000E0002010BD38B500200090002400258A
:1013B00000BF3120FFF7DBFF05460098401C00907E
:1013C0000098B0F5A06F01D0002DF2D03120FFF7CA
:1013D000CEFF08B1012400E00024204638BD0146BC
:1013E0000020A14A106820F0F80040EAC100106017
:1013F0007047A04908607047024600209A4B586821
:1014000020F47C1042EA01031843974B5860704760
:1014100098490866704701460020934A506820F0BA
:1014200003000843506070478F48406800F00C008C
:101430007047014600208C4A506820F0F0000843B5
:101440005060704701460020874A506820F4E060F1
:1014500008435060704701460020834A506820F4DA
:10146000605040EAC1005060704729B17E4A527A0C
:1014700002437D4B5A7204E07B4A527A82437A4B94
:101480005A7270477B49D831086070470146002086
:10149000754A506820F4404008435060704700216E
:1014A000714A20321170704A82F82010012802D04F
:1014B00004280AD104E001216B4A2032117005E0B2
:1014C0000521694A2032117000E000BF00BF70475B
:1014D0006949086070476449096A0143624A1162B8
:1014E0007047654944390860704730B500210022D3
:1014F000002400235C4D6D6805F00C0121B1042926
:1015000005D0082923D105E05C4D056022E05B4D44
:1015100005601FE0544D6D6805F47012524D6D6802
:1015200005F48034022505EB92421CB9544D554315
:1015300005600BE04C4D6D6805F400351DB1504D54
:101540005543056002E04D4D5543056002E04B4DAB
:10155000056000BF00BF444D6D6805F0F00109094A
:10156000484D6B5C0568DD4045603F4D6D6805F496
:10157000E061090A434D6B5C4568DD4085603A4D8A
:101580006D6805F46051C90A3E4D6B5C4568DD40ED
:10159000C560354D6D6805F44041890B3A4D6B5C73
:1015A000C568B5FBF3F5056130BD29B12E4A526916
:1015B00002432D4B5A6104E02B4A526982432A4B65
:1015C0005A61704729B1284A92690243264B9A61B1
:1015D00004E0254A92698243234B9A61704729B1FE
:1015E000214AD2690243204BDA6104E01E4AD269E3
:1015F00082431D4BDA61704729B11B4AD26802430E
:10160000194BDA6004E0184AD2688243164BDA605C
:10161000704729B1144A12690243134B1A6104E05E
:10162000114A12698243104B1A61704712494039BE
:10163000086070470F49C86470470B49C87170470C
:101640000948406A40F08070074948627047014687
:101650000020054A92680A400AB1012000E00020FB
:101660007047014988727047001002400000FFF87F
:10167000FFFFF6FE000042428004424200127A0060
:1016800000093D0096000020A600002010B5044689
:10169000CC48844208D101210420FFF7ADFF00218E
:1016A0000420FFF7A9FF46E0C748844208D1012182
:1016B0000820FFF7A1FF00210820FFF79DFF3AE077
:1016C000C248844208D101211020FFF795FF002174
:1016D0001020FFF791FF2EE0BD48844208D1012180
:1016E0002020FFF789FF00212020FFF785FF22E05F
:1016F000B848844208D101214020FFF77DFF002136
:101700004020FFF779FF16E0B348844208D1012159
:101710008020FFF771FF00218020FFF76DFF0AE0B6
:10172000AE48844207D101218015FFF765FF0021F3
:10173000A015FFF761FF10BD10B501210846FFF7A6
:101740005BFF00210120FFF757FF10BD2DE9F0419D
:10175000024600250026002000230024002791F8DF
:1017600003C00CF00F0591F803C00CF0100CBCF195
:10177000000F03D091F802C04CEA050591F800C0B3
:10178000BCF1000F31D0146800202BE04FF0010CA9
:101790000CFA00F3B1F800C00CEA03069E4220D117
:1017A00083004FF00F0C0CFA03F7BC4305FA03FC5F
:1017B0004CEA040491F803C0BCF1280F06D14FF0A5
:1017C000010C0CFA00FCC2F814C00AE091F803C046
:1017D000BCF1480F05D14FF0010C0CFA00FCC2F827
:1017E00010C0401C0828D1D31460B1F800C0BCF16F
:1017F000FF0F34DD546800202EE000F1080C4FF09C
:10180000010808FA0CF3B1F800C00CEA03069E4286
:1018100021D183004FF00F0C0CFA03F7BC4305FAFB
:1018200003FC4CEA040491F803C0BCF1280F05D175
:1018300000F1080C08FA0CF8C2F8148091F803C003
:10184000BCF1480F07D100F1080C4FF0010808FA6D
:101850000CF8C2F81080401C0828CED35460BDE8B4
:10186000F0814FF6FF710180022181700421C17067
:1018700070470246002093680B400BB1012000E046
:10188000002070470146886880B2704702460020F9
:10189000D3680B400BB1012000E0002070470146E7
:1018A000C86880B2704701617047416170470AB1F2
:1018B000016100E041617047C16070474FF48032C0
:1018C0000A4382618161826182698269704702464E
:1018D0000020434B18684FF68073184040EA02100E
:1018E00008433F4B186070473E49C8617047F0B5E8
:1018F0000A46002300240021002500F00046B6F12E
:10190000004F02D1364EF16901E0354E7168C0F3E7
:10191000034583B200F44016B6F5401F08D121F00C
:1019200070612F4E766826F070662D4F7E6012E053
:1019300000F48016B6F5801F06D1032606FA05F4DA
:10194000A14341F0706106E0460D360103FA06F648
:10195000B14341F0706122B1460D360103FA06F63B
:10196000314300F00046B6F1004F02D11C4EF16148
:1019700001E01B4E7160F0BD30B500228B071C0FDB
:101980000F2303FA04F2164B08338C1053F824305B
:101990009343134C08348D1044F8253023468C10A3
:1019A00053F824308C07240F00FA04F423430C4C22
:1019B00008348D1044F8253030BD0A49DC31086008
:1019C0007047000000080140000C01400010014079
:1019D0000014014000180140001C0140002001409B
:1019E0000000014000002042002044490860091D19
:1019F0000860091D0860091D086041483F4914310D
:101A00000860704700213D498279002A3AD00A4691
:101A1000126803689A430B461A600A1D126803682D
:101A20009A430B1D1A60027911440A6803681A432D
:101A30000A60324A0832126803689A432F4B08330F
:101A40001A601A1D126803689A432C4B0C331A60F3
:101A50004279102A0ED11A1F126803681A43274BC5
:101A600008331A601A1D126803681A43234B0C339B
:101A70001A600DE02149427911440A6803681A434B
:101A80000A6005E0027911440A6803689A430A6013
:101A900070470021016001710C21417100218171A9
:101AA00070471649103109680143144A1032116019
:101AB000704701460020114A143212680A400AB1E8
:101AC000012000E0002070470C4914310860704785
:101AD000014600200022094B1B6803EA0102074B64
:101AE00014331B680B4013B10AB1012000E0002041
:101AF000704702491431086070470000000401403B
:101B0000FFFF0F0010B50446BE48844208D10121F2
:101B10008014FFF771FD0021A014FFF76DFD16E0A2
:101B2000B948844208D101210014FFF772FD002159
:101B30002014FFF76EFD0AE0B448844207D101216A
:101B4000C013FFF766FD0021E013FFF762FD10BD33
:101B500010B50022028802F441520B884C882343BE
:101B60008C882343CC8823430C8923434C8923430B
:101B70008C892343CC8923431A430280838B4FF201
:101B8000FF74234083830B8A038210BD2DE9F04F3D
:101B900085B005460C464FF0000902274FF00008BB
:101BA0004FF0010B0026B246A88B4FF240010840CF
:101BB000A88302202884B5F81C90A068022801D1CF
:101BC00000BF38E0A08810B94FF0010B01E04FF0E2
:101BD000020B8D48854200D100E000BF6846FFF748
:101BE00084FCDDF800A0E088B0F5007F0AD14FEA60
:101BF0001A2000EB80004000A168B0FBF1F0401D0E
:101C000086B20BE04FEA4B10BAFBF0F000EB80001D
:101C10004000A168B0FBF1F0401D86B20A20B6FB7F
:101C2000F0F606F00108A6EB0800C0F34F074FF6E8
:101C3000FF7000EA0828022F01DBFF2F02DD0227D8
:101C40004FF00008E08840EA080038432884A08864
:101C5000A1890843618808432188084340F4006053
:101C600040EA0909A5F81C9005B0BDE8F08F0021F5
:101C7000018041808180C180018141818181C18158
:101C80000721018270470021018041808180C1804D
:101C90000221816000218181704721B1028842F0D8
:101CA0004002028004E002884FF6BF731A400280AF
:101CB000704721B1828B42F48062828304E0828B80
:101CC0004FF6FF331A408283704730B5002400235B
:101CD0000C110125A540ABB21AB185881D43858042
:101CE00002E085889D43858030BD1AB183880B430F
:101CF000838002E083888B438380704781817047B3
:101D00000146888970474FF6FF62914204D00288ED
:101D100042F48072028004E002884FF6FF631A40AA
:101D20000280704721B1828842F00402828004E080
:101D300082884FF6FB731A408280704702884FF208
:101D4000FF731A40028002880A43028070470188AC
:101D500041F480510180704721B1028842F4005261
:101D6000028004E002884DF6FF731A40028070473B
:101D700002460020012901D0108B00E0908A7047B4
:101D80000146088A7047B1F5804F04D1028842F4B9
:101D90008042028004E002884BF6FF731A40028002
:101DA00070470246002013890B400BB1012000E070
:101DB00000207047CA4302817047F0B502460020F8
:101DC00000240023002501F00F070126BE40B4B215
:101DD0000B1101269E40B3B2968806EA03051689C8
:101DE000264016B10DB1012000E00020F0BD10B575
:101DF000002201F00F040123A3409AB2D3430381D0
:101E000010BD00000030014000380040003C0040A0
:101E100010B50446FB48844209D101218803FFF72D
:101E2000EBFB00214FF48040FFF7E6FB32E0F64881
:101E3000844209D101214804FFF7EBFB00214FF454
:101E40000030FFF7E6FB25E0F048844209D101218C
:101E50008804FFF7DEFB00214FF48020FFF7D9FB59
:101E600018E0EB48844209D10121C804FFF7D1FBF7
:101E700000214FF40020FFF7CCFB0BE0E548844243
:101E800008D101210805FFF7C4FB00214FF48010A1
:101E9000FFF7BFFB10BD2DE9F04786B005460E46A3
:101EA0000024A24600BFA1460027B08900B100BFB0
:101EB0002F462C8A4CF6FF700440F08804432C8295
:101EC000AC894EF6F3100440B0883189084371891B
:101ED00008430443AC81AC8A4FF6FF400440B0890C
:101EE0000443AC8201A8FFF700FBC648874202D139
:101EF000DDF810A001E0DDF80CA0A88900F4004096
:101F000040B10AEBCA0000EB0A1031684900B0FB8F
:101F1000F1F807E00AEBCA0000EB0A10316889000B
:101F2000B0FBF1F86420B8FBF0F004012009642153
:101F300001FB1089A88900F4004040B1322000EB79
:101F4000C900B0FBF1F000F00700044308E03220C4
:101F500000EB09106421B0FBF1F000F00F00044326
:101F60002C8106B0BDE8F0874FF4165101600021C6
:101F70008180C18001810C214181002181817047D4
:101F800010B502460020108A4FF2FF0318400B885C
:101F90004C8823438C882343CC88234318431082E6
:101FA00010BD0021018041808180C180704721B136
:101FB000828942F40052828104E082894DF6FF73E7
:101FC0001A4082817047F0B50346002400260025A0
:101FD000002040F66A17B94200D100BF1846C1F38D
:101FE000421401F01F06012707FA06F5012C01D162
:101FF0000C3004E0022C01D1103000E014301AB192
:1020000007682F43076002E00768AF430760F0BD31
:102010001AB1838A0B43838202E0838A8B438382D3
:102020007047028A4FF6F0731A400282028A0A430E
:102030000282704782894FF2FF731A40828182893F
:102040000A438281704721B1828942F00202828173
:1020500004E082894FF6FD731A4082817047028A3C
:102060004FF6DF731A400282028A0A4302827047E7
:1020700021B1028A42F48042028204E0028A4BF6D5
:10208000FF731A4002827047C1F3080282807047D2
:1020900001468888C0F308007047818941F001013A
:1020A00081817047028BD2B20283028B42EA012205
:1020B00002837047028B02F47F420283028B0A4341
:1020C0000283704721B1828A42F02002828204E0BA
:1020D000828A4FF6DF731A408282704721B1828A6A
:1020E00042F01002828204E0828A4FF6EF731A40B7
:1020F0008282704721B1828A42F00802828204E023
:10210000828A4FF6F7731A408282704721B1828922
:1021100042F40042828103E08289C2F30E0282818E
:10212000704721B1828A42F40062828204E0828A8E
:102130004FF2FF731A4082827047828A4FF6FB7318
:102140001A408282828A0A438282704721B1828A3F
:1021500042F00202828204E0828A4FF6FD731A4046
:102160008282704702460020B1F5007F00D100BF97
:1021700013880B400BB1012000E00020704701F4F0
:102180000072B2F5007F00D100BFCA4302807047E1
:1021900070B50246002400230025002040F66A1690
:1021A000B14200D100BFC1F3421501F01F03012667
:1021B00006FA03F3012D02D19689334006E0022D81
:1021C00002D1168A334001E0968A33400C12012670
:1021D00006FA04F41688344013B10CB1012000E073
:1021E000002070BD10B50022002340F66A14A14201
:1021F00000D100BF0A1201249440A3B2DC43048042
:1022000010BD00000038014000440040004800407C
:10221000004C0040005000400CB5002001900090A0
:102220006C48006840F480306A49086000BF694823
:10223000006800F4003000900198401C0190009864
:1022400018B90198B0F5A06FF1D16248006800F4A8
:10225000003010B10120009001E0002000900098B3
:10226000012843D15C48006840F010005A490860DA
:102270000846006820F0030008600846006840F047
:102280000200086053484068524948600846406868
:1022900048600846406840F48060486008464068EE
:1022A00020F47C1048600846406840F4E81048601C
:1022B0000846006840F08070086000BF454800682C
:1022C00000F000700028F9D04248406820F0030078
:1022D000404948600846406840F00200486000BF3E
:1022E0003C48406800F00C000828F9D10CBD10B53E
:1022F000FFF792FF10BD10B53648006840F00100AE
:10230000344908600846406834490840314948600B
:1023100008460068324908402E49086008460068AF
:1023200020F4802008600846406820F4FE004860E1
:102330004FF41F008860FFF7DAFF4FF00060294973
:10234000086010BD10B5002100200022214B5B6801
:1023500003F00C0121B1042906D0082928D107E097
:10236000214B224C236027E01F4B204C236023E0AD
:10237000184B5B6803F47010164B5B6803F48032F3
:10238000022303EB904022B9194B4343174C2360BF
:102390000DE0104B5B6803F4003323B1144B43434F
:1023A000124C236003E0104B4343104C236003E0C6
:1023B0000D4B0E4C236000BF00BF064B5B68C3F3A0
:1023C00003130C4CE15C094B1B68CB40074C2360AA
:1023D00010BD000000100240002002400000FFF885
:1023E000FFFFF6FE08ED00E000127A00AC000020CE
:1023F00000093D00B000002006488047064800471D
:10240000FEE7FEE7FEE7FEE7FEE7FEE7FEE7FEE7A4
:10241000FEE7FEE7F7220008310100082DE9FF4F33
:10242000A3B06FF003022398239940680290896853
:10243000209123990988189102EB810108440390A7
:102440002698C0081F9000F084831898C008219037
:1024500024980168039801602498039950F8042F88
:1024600041F8042F50F8042F41F8042F50F8042F9E
:1024700041F8042F00220C920192139212921092B2
:102480000F920E920D92209D029C50F8042F41F85D
:10249000042F50F8042F41F8042F50F8042F41F86E
:1024A000042F42684A60083108300391249054F8A0
:1024B000040B0B9054F804AB54F8040B089054F838
:1024C000049BDDF884B054F8048BBBF1000F54F882
:1024D000047B54F8046B00F0B28200BF55F8040B83
:1024E000009054F8040B0A9000990B9800F08BFCB4
:1024F00011905046009900F086FC1B9000990898B6
:1025000000F081FC17904846009900F07CFC1A907E
:102510004046009900F077FC19903846009900F089
:1025200072FC16903046009900F06DFC15900099F1
:102530000A9800F068FC149055F8040B009054F8C9
:10254000040B0B901199019800F005FC01901B9968
:10255000139800F000FC13901799129800F0FBFB01
:1025600012901A99109800F0F6FB109019990F9894
:1025700000F0F1FB0F9016990E9800F0ECFB0E9016
:1025800015990D9800F0E7FB0D9014990C9800F048
:10259000E2FB0C905046009900F035FC1190009938
:1025A000089800F030FC1B904846009900F02BFC86
:1025B00017904046009900F026FC1A903846009982
:1025C00000F021FC19903046009900F01CFC169098
:1025D00000990A9800F017FC159000990B9800F0EC
:1025E00012FC149055F8040B009054F804AB1199A8
:1025F000019800F0B0FB01901B99139800F0ABFB21
:1026000013901799129800F0A6FB12901A9910983F
:1026100000F0A1FB109019990F9800F09CFB0F900F
:1026200016990E9800F097FB0E9015990D9800F0F2
:1026300092FB0D9014990C9800F08DFB0C90009972
:10264000089800F0E0FB11904846009900F0DBFB91
:102650001B904046009900F0D6FB17903846009931
:1026600000F0D1FB1A903046009900F0CCFB199095
:1026700000990A9800F0C7FB169000990B9800F09B
:10268000C2FB15905046009900F0BDFB149055F820
:10269000040B009054F8040B08901199019800F075
:1026A0005AFB01901B99139800F055FB1390179952
:1026B000129800F050FB12901A99109800F04BFB02
:1026C000109019990F9800F046FB0F9016990E98EC
:1026D00000F041FB0E9015990D9800F03CFB0D9019
:1026E00014990C9800F037FB0C904846009900F0C4
:1026F0008AFB11904046009900F085FB1B903846FC
:10270000009900F080FB17903046009900F07BFBA9
:102710001A9000990A9800F076FB199000990B988E
:1027200000F071FB16905046009900F06CFB15907C
:102730000099089800F067FB149055F8040B00907E
:1027400054F8049B1199019800F005FB01901B9926
:10275000139800F000FB13901799129800F0FBFA01
:1027600012901A99109800F0F6FA109019990F9893
:1027700000F0F1FA0F9016990E9800F0ECFA0E9016
:1027800015990D9800F0E7FA0D9014990C9800F047
:10279000E2FA0C904046009900F035FB1190384663
:1027A000009900F030FB1B903046009900F02BFBA5
:1027B000179000990A9800F026FB1A9000990B9840
:1027C00000F021FB19905046009900F01CFB169078
:1027D0000099089800F017FB15904846009900F002
:1027E00012FB149055F8040B009054F8048B1199C7
:1027F000019800F0B0FA01901B99139800F0ABFA21
:1028000013901799129800F0A6FA12901A9910983E
:1028100000F0A1FA109019990F9800F09CFA0F900F
:1028200016990E9800F097FA0E9015990D9800F0F1
:1028300092FA0D9014990C9800F08DFA0C9038468D
:10284000009900F0E0FA11903046009900F0DBFAB0
:102850001B9000990A9800F0D6FA179000990B98EF
:1028600000F0D1FA1A905046009900F0CCFA199075
:102870000099089800F0C7FA16904846009900F0B1
:10288000C2FA15904046009900F0BDFA149055F830
:10289000040B009054F8047B1199019800F05BFA46
:1028A00001901B99139800F056FA139017991298FB
:1028B00000F051FA12901A99109800F04CFA10900A
:1028C00019990F9800F047FA0F9016990E9800F09A
:1028D00042FA0E9015990D9800F03DFA0D9014995A
:1028E0000C9800F038FA0C903046009900F08BFA02
:1028F000119000990A9800F086FA1B9000990B98A5
:1029000000F081FA17905046009900F07CFA1A9076
:102910000099089800F077FA19904846009900F05D
:1029200072FA16904046009900F06DFA15903846FC
:10293000009900F068FA149055F8040B009054F8D0
:10294000046B1199019800F006FA01901B991398F5
:1029500000F001FA13901799129800F0FCF9129008
:102960001A99109800F0F7F9109019990F9800F043
:10297000F2F90F9016990E9800F0EDF90E90159956
:102980000D9800F0E8F90D9014990C9800F0E3F917
:102990000C9000990A9800F036FA119000990B9863
:1029A00000F031FA1B905046009900F02CFA179075
:1029B0000099089800F027FA1A904846009900F00C
:1029C00022FA19904046009900F01DFA16903846F8
:1029D000009900F018FA15903046009900F013FAAB
:1029E0001490ABF1010B1199019800F0B4F901902A
:1029F0001B99139800F0AFF913901799129800F0F3
:102A0000AAF912901A99109800F0A5F91090199946
:102A10000F9800F0A0F90F9016990E9800F09BF90E
:102A20000E9015990D9800F096F90D9014990C9848
:102A300000F091F90C90BBF1000F7FF44FAD1898A6
:102A400010F0070B63D000BF55F8040B009054F84A
:102A5000040B0A9000990B9800F0D5F9119050469C
:102A6000009900F0D0F91B900099089800F0CBF97C
:102A700017904846009900F0C6F91A904046009910
:102A800000F0C1F919903846009900F0BCF9169091
:102A90003046009900F0B7F9159000990A9800F0B7
:102AA000B2F9CDF82CA0DDF820A0CDF82090C146D9
:102AB0001490B84637460A9E1199019800F04BF9D8
:102AC00001901B99139800F046F9139017991298EA
:102AD00000F041F912901A99109800F03CF910900A
:102AE00019990F9800F037F90F9016990E9800F089
:102AF00032F90E9015990D9800F02DF90D9014995A
:102B00000C9800F028F90C90BBF1010B9CD10298B5
:102B1000203002902599019808602598139940F873
:102B2000041F129940F8041F109940F8041F0F99D0
:102B300040F8041F0E9940F8041F0D9940F8041F37
:102B40000C994160083025901F98401E1F907FF41B
:102B50007FAC269810F0070850D024980025016813
:102B6000039801602498209E001D24900398029CE5
:102B7000001D0390DDF860903168206800F043F993
:102B8000294600F0E8F8371D261D0546B9F1010475
:102B900029D0B4F1004F7DD2002C24DD361F3F1F19
:102BA00014F0010F09D057F8041F56F8040F00F075
:102BB0002AF9294600F0CFF80546641013D0796849
:102BC000706800F020F9294600F0C5F8054657F86E
:102BD000081F56F8080F00F016F9294600F0BBF858
:102BE0000546641EEBD1259805602598001D2590AB
:102BF0000298001D0290B8F10108AED123981899EF
:102C000040684C1EA30820D0B3F1004F56D2002BD1
:102C10001BDD029A01469C4652F8045B41F8045BB6
:102C200052F8045B41F8045B52F8085B41F8085B1A
:102C300052F8045C41F8045CBCF1010CECD102993F
:102C400000EB031001EB0311029114F0030104BF28
:102C500027B0BDE8F08FB1F1004F44D20029DCBFAE
:102C600027B0BDE8F08F031F029A121F11F0010F69
:102C700003D052F8040F43F8040F480804BF27B0EC
:102C8000BDE8F08F5168596052F8081F43F8081FDB
:102C9000401E00E003E0F5D127B0BDE8F08F3968B1
:102CA000306800F0B0F8294600F055F80546641E7B
:102CB00006F1040607F10407F1D194E702990968C7
:102CC00040F8041B029951F8042F40F8042B51F8E6
:102CD000042F40F8042B4A68083140F8042B029175
:102CE0005B1EEBD1B1E7029A126840F8042B029AFE
:102CF000121D0292491EF6D127B0BDE8F08F70B5C3
:102D000004460498218008448000011F1D4618468F
:102D1000A26000F009F8656070BDD2B201E000F871
:102D2000012B491EFBD270470022F6E710B513466F
:102D30000A4604461946FFF7F0FF204610BD10B5BD
:102D4000044604E00B7800F8013B03B1491C521E15
:102D5000F8D2204610BDF0B480EA0102D40F420040
:102D6000B2EB410F02D20246084611464A0042D059
:102D7000C30DDDB2C1F3C752AD1A202D35DAC1F350
:102D8000160141F4000204B15242C5F1200602FAD4
:102D900006F12A411044B3EBD05F23D0C4B1012D1A
:102DA000A0EBC35009DCF0BC4FF0004202EAC35272
:102DB000DBB200F5000000F049B9400000F180707E
:102DC00000EBC350A0F1807040EAD170490009E0E7
:102DD000490841EAC071A0EBC35000F5000040086B
:102DE00000EBC350F0BC00F028B96142012202EBB5
:102DF0004101001BF6E7F0BC704781F00041AAE7F3
:102E000080F00040A7E780EA010210B502F000431D
:102E1000400022D04A001FD0010E01EB1261C0F326
:102E20005600C2F3560240F4000042F40002A0FB38
:102E3000022000047F39140400D0401C50EA1240E4
:102E400001D44000491EC2B20C0604EBD010401C55
:102E50004008802A02D003E0002010BD20F00100CD
:102E6000002900DA0020184310BD30B480EA0102C6
:102E700002F0004530F0004221F0004013D090B144
:102E8000C30DD40DC2F31601C0F31600E41A41F4C9
:102E9000000140F400027D34914201D3641C00E043
:102EA0004900002C02DA30BC002070474FF40000CB
:102EB0000023914201D3891A034340084FEA41019C
:102EC000F7D151B1914202D14FF0004105E002D259
:102ED0004FF0010101E06FF0010103EBC450284401
:102EE00030BC00F0AAB8C10F80EAE0700844CA07FD
:102EF0009623002100F0AAB896230022114600F084
:102F0000A5B800F0004220F00040C10DC0F316004B
:102F100040F400007F2901DA00207047962903DC85
:102F2000C1F19601C84001E096398840002AF4D0EA
:102F30004042704720F00040C10DC0F3160040F43D
:102F400000007F2901DA00207047962903DCC1F1D7
:102F50009601C840704796398840704700F000429B
:102F600030F000400AD0C10D01F56071C0F31600C9
:102F700042EA0151C2084007114370470020014650
:102F800070470000002801DBC0F10040002901DB90
:102F9000C1F1004181427047002801DBC0F10040CF
:102FA000002901DBC1F100418842704730B50B4672
:102FB000014600202022012409E021FA02F59D4269
:102FC00005D303FA02F5491B04FA02F52844151E3D
:102FD000A2F10102F1DC30BD2DE9F05F05460020D1
:102FE00092469B4688460646814640241BE028467A
:102FF00041464746224600F030FA53465A46C01A28
:10300000914110D311461846224600F017FA2D1AA6
:1030100067EB01084F4622460120002100F00EFA1E
:1030200017EB00094E41201EA4F10104DFDC4846E5
:1030300031462A464346BDE8F09F0029A8BF7047A5
:10304000401C490008BF20F00100704710B4B0FADE
:1030500080FC00FA0CF050EA010404BF10BC704779
:1030600049B1CCF1200421FA04F411FA0CF118BF93
:10307000012121430843A3EB0C01CB1D4FEA006162
:103080004FEA102042BF002010BC704700EBC35035
:1030900010440029A4BF10BC7047401C490008BF61
:1030A00020F0010010BC70472DE9FE4F804681EAF8
:1030B0000300C00F0C46009021F0004123F00045B2
:1030C000B8EB0200A94105D24046214690461C4675
:1030D0000B46024623F00040104347D0270DC7F3AC
:1030E0000A00C3F30A510290401A019040286BDA9B
:1030F000C3F3130040F4801B0098924620B10023D4
:10310000D2EB030A63EB0B0B01985946C0F1400266
:10311000504600F093F906460D4650465946019A2E
:1031200000F0ABF910EB08006141002487EA11526E
:1031300084EAE7731A4340D0009A62B3019A012AE5
:103140004FEA075215DC001B61EB02014FF0004211
:1031500002EA0752CDE90042001C41F580113246D7
:103160002B4600F0ABF903B0BDE8F08F4046214696
:10317000F9E7001B61EB0201001C41F58013001808
:103180005B412018A2F5001747EB030140EAD57018
:10319000B6196D4111E06D084FEA360645EAC07573
:1031A0004FEA0752001B61EB0201001C41F5801140
:1031B00049084FEA30000019514132462B4603B00E
:1031C000BDE8F04F00F06BB90098012240000023E9
:1031D000D0EB020263EBE073009821464FEAE07403
:1031E000B8EB000061EB0401E9E783F000435BE723
:1031F00081F0004158E72DE9FE4F81EA030404F015
:10320000004421F0004100944FF0000B23F00043F4
:1032100050EA01045ED052EA03045BD0C3F30A54BF
:10322000C1F30A552C44A4F2F3340194A0FB0254D8
:10323000C1F3130141F48011C3F3130343F480136A
:1032400001FB024400FB034E840A970A44EA8154BE
:1032500047EA8357A4FB076802958D0A05FB07859B
:103260004FEA932C04FB0C542705029D4FEA0658A5
:1032700047EA1637B5EB08056EEB070C870E920E82
:1032800047EA811742EA8312A7FB0201B6EB0B0162
:1032900064EB00042B0D43EA0C335E1844EB1C5026
:1032A000DA465146E7FB0201C5F313044FEA0B333C
:1032B00043EA14534FEA0432019C43EA0603A4F1A3
:1032C0000C040294009CCDE900B400F0F7F803B0C0
:1032D000BDE8F08F00200146F9E72DE9F04D81EAC5
:1032E000030404F0004B21F0004514464FF0000A9F
:1032F00023F0004150EA050220D054EA01021DD01B
:10330000C5F30A570246C5F31303C1F31300C1F313
:103310000A5640F4801543F48013A7EB0608101BEF
:10332000D64608F2FD3873EB050002D308F1010818
:1033300001E092185B41B8F1000F03DA002001466A
:10334000BDE8F08D00204FF48011064684460EE063
:10335000171B73EB050705D3121B63EB050306432D
:103360004CEA010C49084FEA300092185B4150EAE0
:103370000107EDD152EA030012D082EA040083EA89
:103380000501084305D0101BAB4106D201220023E2
:1033900006E000224FF0004302E06FF001025310FC
:1033A0001AEB06004CEB085110EB0A0041EB0B0145
:1033B000BDE8F04D00F073B8C1F30A52C1F3130138
:1033C00040F2FF3341F480119A4202DA00200146B4
:1033D000704740F233439A42A2F2334202DC524237
:1033E00000F03BB800F02AB830B5041E71F10004BB
:1033F00004DB4FF00044404264EB0101141E73F102
:10340000000405DB1C464FF00043524263EB04030B
:10341000994208BF904230BD064C074D06E0E06877
:1034200040F0010394E8070098471034AC42F6D30B
:10343000FCF782FE0443000824430008202A04DB32
:10344000203A00FA02F1002070479140C2F12003B7
:1034500020FA03F3194390407047202A04DB203AF6
:1034600021FA02F00021704721FA02F3D040C2F1A4
:1034700020029140084319467047202A06DBCB17EB
:10348000203A41FA02F043EAE07306E041FA02F31F
:10349000D040C2F12002914008431946704710B550
:1034A000141E73F1000408DA401C41F10001921867
:1034B0005B411A4301D120F0010010BD2DE9F04D10
:1034C00092469B4611B1B1FA81F202E0B0FA80F265
:1034D00020329046FFF7B2FF04460F4640EA0A004A
:1034E00041EA0B0153465A46084313D0114653EAAA
:1034F000010019D0C8F140025046FFF7AEFF054663
:103500000E46504659464246FFF798FF084305D0FD
:10351000012004E020463946BDE8F08D0020054337
:1035200046EAE0762C4337430A986305E40AA0EBA9
:1035300008000022FD0A44EA47540A3002D5002060
:103540000146E9E7010510196941DDE9084500195F
:103550006941BDE8F04DA2E70FB4054B10B503A9D2
:10356000044A029800F0DAF810BC5DF814FB000081
:10357000190D00089000002002E008C8121F08C1C1
:10358000002AFAD170477047002001E001C1121FE4
:10359000002AFBD1704700002DE9FF5F82B00021B7
:1035A000DDE90430020DDDF840B0034318D044F6E5
:1035B0001050A2F2FF3242431514119801281FD077
:1035C000A5EB0B00401C5FEA000A4FF000064E4FCF
:1035D000DFF83891B046504615D5CAF1000413E023
:1035E000119801244AA3012801D16FEA0B01029826
:1035F000119AC0E90031C0E9024206B0BDE8F09F6F
:10360000CBF10000DFE704460021404A491842EBB5
:103610000450CDE9001012E0E00707D032463B46E7
:1036200040464946FFF7E7FD8046894632463B461D
:1036300010461946FFF7DFFD06460F466410002CC2
:10364000EAD1DDE90401DDE90023BAF1000F06DA71
:10365000FFF7D1FD42464B46FFF7CDFD05E0FFF7F2
:103660003CFE42464B46FFF738FE04460E4600221B
:10367000284BFFF7B9FE03D84FF0FF30014607E0B3
:103680000022254B20463146FFF70EFDFFF794FE42
:10369000102409E0002C0ADB0A220023FFF79CFC1F
:1036A000039B30321A55641E50EA0102F2D1641CA9
:1036B000039AC4F111031444119A012A03D0012280
:1036C00008430DD10AE0084304D000204FF0110B4D
:1036D000119072E7A3EB0B056D1E0DE05B4504DD59
:1036E0004FF0000205F1010504E003DA4FF000029B
:1036F000A5F10105002AECD002981199C0E9023128
:10370000C0E9004579E70000000014400000F03FE8
:10371000300000000000F0430000E03F2DE9FF4FC3
:1037200095B09B468946064600250FE2252877D1AD
:1037300000242746F84A0121059400E0044316F8C6
:10374000013F203B01FA03F01042F7D130782A28DC
:1037500011D06FF02F033078A0F13002092A16D86B
:10376000059A44F0020402EB820203EB4202104489
:10377000761C0590EFE759F8042B0592002A03DA2E
:10378000504244F40054059044F00204761C307812
:103790002E2816D116F8010F44F004042A280DD063
:1037A0006FF02F023078A0F13003092B09D807EB16
:1037B000870302EB4303C718761CF3E759F8047B31
:1037C000761C30786C280FD006DC4C2817D068287F
:1037D0000DD06A2814D104E0742810D07A280FD1B3
:1037E0000DE044F400140AE044F4801401E044F4D1
:1037F00040147278824202D104F58014761C761C43
:10380000307866280BD013DC582877D009DC0028E4
:1038100075D04528F6D04628F4D047281AD19DE126
:1038200018E0632835D0642879D0652812D195E155
:10383000702873D008DC6728F1D069286FD06E2813
:103840000DD06F2806D1B5E073282CD0752875D01F
:10385000782874D05A46179990476D1C75E1C4F3C7
:103860000250022809D003280DD0D9F800100428EE
:103870000DD00D6009F1040967E1D9F80010EA17CD
:10388000C1E90052F6E7D9F800100D80F2E70D709B
:10389000F0E719F8041B8DF8001000208DF80100E6
:1038A000EA46012003E059F804AB4FF0FF3061070E
:1038B0004FF0000102D40DE008F101018846B94241
:1038C0000FDA8045F8DB1AF808100029F4D108E077
:1038D00008F1010188468142FADB1AF80810002934
:1038E000F6D105985B46A0EB080721463846179AA3
:1038F00000F094FA284400EB080507E04DE029E1C8
:103900000DE01AF8010B5A4617999047B8F10108D3
:10391000F7D25B4621463846179A13E142E00A2265
:103920000092C4F302524FF0000A022A08D059F85C
:1039300004CB032A4FEAEC710AD00DE029E02AE01B
:1039400009F1070121F00702F2E802C1914609E0FE
:103950000FFA8CFC4FEAEC71042A03D14FFA8CFC6D
:103960004FEAEC71002907DA0A460021DCF1000C6D
:1039700061EB02012D2202E0220504D52B228DF8F5
:103980000420012203E0E20701D02022F7E790465D
:1039900059E00A2102E010220DE010214FF0000A48
:1039A00000910BE010224FF0000A44F004040827B5
:1039B000009203E008224FF0000A0092C4F3025282
:1039C000022A05D059F804CB0021032A08D009E0C7
:1039D00009F1070121F00702F2E802C1914605E072
:1039E0001FFA8CFC042A01D10CF0FF0C4FF00008E8
:1039F000220728D5702806D0009B83F0100353EAD5
:103A00000A0305D00EE040228DF80420012208E0D0
:103A10005CEA010206D030228DF804208DF8050002
:103A200002229046009B83F0080353EA0A030AD15E
:103A30005CEA010201D1620705D530228DF804202D
:103A40004FF001087F1E582804D034A003900EA820
:103A500002900DE036A0F9E753466046009AFFF762
:103A6000BBFA84460398825C0298401E0290027062
:103A70005CEA0100F0D1029806A9081A00F1200AB8
:103A8000600702D524F4803400E00127574502DDA9
:103A9000A7EB0A0000E0002000EB0A010090059867
:103AA0004144401A0590E00306D45B462146179A2C
:103AB000059800F0B3F90544002706E001A85A462E
:103AC000C05D179990476D1C7F1C4745F6DBE003EE
:103AD0000CD55B462146179A059800F09FF90544DE
:103AE00004E030205A46179990476D1C0099481EF3
:103AF00000900029F5DC08E0029802995A46007807
:103B0000491C0291179990476D1CBAF10001AAF166
:103B1000010AF1DC65E1000009280100303132338F
:103B200034353637383961626364656600000000F9
:103B300030313233343536373839414243444546E3
:103B40000000000000F058F90544761C3078002889
:103B50007FF4ECAD19B02846BDE8F08F620700D4C1
:103B6000062709F1070222F0070CFCE80223E146D0
:103B700003F000485FEA080C02D00FF2702C0DE051
:103B80005FEA045C02D50FF2682C07E05FEAC47CB0
:103B900002D00FF2602C01E0AFF2700C4FF0FF3852
:103BA00023F00043CDF850C065280CD006DC452832
:103BB00009D046281DD047283DD13DE0662818D0C1
:103BC00067287ED138E00021112F01DB112000E0B1
:103BD000781CCDE9000106A90EA8FFF7DDFCDDE9A0
:103BE0000F010E9A03910021009207F1010A04913E
:103BF0004DE04FF000400097CDE9011006A90EA856
:103C0000FFF7CAFCDDE90F0203920E9B1199002217
:103C1000DDF80CA00093049211B9791C00EB010AA5
:103C2000B7EB0A0004D4C0F1FF3007F1010A049099
:103C3000AAEB0700019044E0012F00DA01270021E0
:103C4000112F01DD112000E03846CDE9000106A961
:103C50000EA8FFF7A1FCDDE90F010E9A03910021E8
:103C600004910092BA4621070CD40399514500DA19
:103C70008A46BAF1010F05DD009AAAF10101515CF3
:103C8000302908D0B84202DA10F1040F06DA012117
:103C9000CDE9011015E0AAF10101E9E7002805DCF2
:103CA000049901440491AAEB000102E0411C514532
:103CB00000DD8A460499401A401C01904FF00040F4
:103CC0000290200704D40198504501DBCDF8048010
:103CD00000208DF84F0002980DF14F07B0F1004F12
:103CE00025D02B200E9002984FF0020800280CDA05
:103CF000404202902D200E9007E00A210298FFF723
:103D000055F93031029007F8011DB8F10001A8F112
:103D10000108F2DC02980028EFD1791E0E98087095
:103D2000307800F0200040F0450007F8020D12A89E
:103D3000C01B00F107081498007800B1012000EBC7
:103D40000A01019801EBE07105984144401A401EB8
:103D50000590E00306D45B462146179A059800F0CB
:103D60005DF805441498007818B15A4617999047A1
:103D70006D1CE00324D55B462146179A059800F098
:103D80004DF805441CE00498002807DBDDE9030139
:103D9000884203DD0098405C179901E017993020B4
:103DA0005A469047049805F10105401C049001987B
:103DB000401E019004D12E205A46179990476D1C41
:103DC000BAF10001AAF1010ADDDC05E017F8010BE8
:103DD0005A46179990476D1CB8F10001A8F10108E7
:103DE000F4DC5B462146179A0598ABE62D000000EF
:103DF0002B000000200000002DE9F04104460025C2
:103E00001E461746880404D405E039462020B047F2
:103E10006D1C641EF9D52846BDE8F0812DE9F041FE
:103E2000044600251E469046C80301D5302700E011
:103E30002027880404D505E041463846B0476D1C6C
:103E4000641EF9D52846BDE8F0810000A3CE1338E2
:103E5000885A863948EF163ADC245C3A01486E3AB3
:103E6000D37A3F3A40E7C639A21B313876C388B8C7
:103E7000B5D54039EAE83F3A8926AE3A706BD63A72
:103E8000814EB93A1E75343AA4AE57B9558148BA35
:103E9000AE2A1BBADBB1AF39A3C5CD3A02B01B3B8A
:103EA000CCC20A3B2B5F2F3AB068B9BA0AD14BBBE0
:103EB0008FEC62BB24B30EBBFDF9B4386C4DFF3AF6
:103EC0000CD8033BF0A49CB90DC18BBB639804BC18
:103ED000ACBE20BC4DD109BC519D96BB4DE622BA6B
:103EE000E358513A46AA01BB418B09BC0D8880BCFE
:103EF000AD5BA5BCC3179EBC757558BC5DCBA9BB9B
:103F00009335E9B88EB0FFBAA16838BC6134C7BC3C
:103F10007ABE0DBDBDAE13BD1A25DABC6E3C27BC02
:103F2000C6E7933BA71E033C8A44A1BBE20200BD47
:103F3000D3B773BD63CB96BD0B3A75BD5A5A5DBC02
:103F400070A36B3D1F87093E1AFB453E01A55C3EF1
:103F50001AFB453E1F87093E70A36B3D5A5A5DBC54
:103F60000B3A75BD63CB96BDD3B773BDE20200BDFE
:103F70008A44A1BBA71E033CC6E7933B6E3C27BC0B
:103F80001A25DABCBDAE13BD7ABE0DBD6134C7BC07
:103F9000A16838BC8EB0FFBA9335E9B85DCBA9BB38
:103FA000757558BCC3179EBCAD5BA5BC0D8880BCA5
:103FB000418B09BC46AA01BBE358513A4DE622BAEF
:103FC000519D96BB4DD109BCACBE20BC639804BCCE
:103FD0000DC18BBBF0A49CB90CD8033B6C4DFF3AD0
:103FE000FDF9B43824B30EBB8FEC62BB0AD14BBBD6
:103FF000B068B9BA2B5F2F3ACCC20A3B02B01B3B68
:10400000A3C5CD3ADBB1AF39AE2A1BBA558148BA48
:10401000A4AE57B91E75343A814EB93A706BD63A90
:104020008926AE3AEAE83F3AB5D5403976C388B832
:10403000A21B313840E7C639D37A3F3A01486E3A7D
:10404000DC245C3A48EF163A885A8639A3CE1338F6
:10405000D114E1B92CA8DAB97DF2D5B99E80D2B9D4
:10406000EFC8CFB9242CCDB959F6C9B96E60C5B91E
:10407000A691BEB989A1B4B9FE99A6B9A27993B99E
:10408000A66C74B9BF7F33B99B0BC4B85E170A36F0
:104090006D58F6389A8D85393CFCD9399FEB1D3A1D
:1040A0003402563ABFD58A3A31A3AE3ACE92D63AC6
:1040B0009C63013BD9AD193BCD31343BEEF4503B11
:1040C00048F86F3B279C883B5A569A3B2D24AD3BC2
:1040D0009FFCC03B3BD4D53B1E9DEB3B8223013C68
:1040E000AADF0C3C9DF8183CDE62253CF311323C03
:1040F00074F83E3C22084C3CFE31593C6666663CF6
:104100002C95733CDD56803C94CF863C332C8D3C03
:104110002B64933CF76E993C2F449F3C96DBA43C68
:104120002C2DAA3C3E31AF3C75E0B33CE633B83CA5
:104130002025BC3C3AAEBF3CDCC9C23C5073C53CF8
:1041400085A6C73C1E60C93C749DCA3CA05CCB3CA4
:10415000799CCB3CA05CCB3C749DCA3C1E60C93CA6
:1041600085A6C73C5073C53CDCC9C23C3AAEBF3CD7
:104170002025BC3CE633B83C75E0B33C3E31AF3C57
:104180002C2DAA3C96DBA43C2F449F3CF76E993C17
:104190002B64933C332C8D3C94CF863CDD56803C85
:1041A0002C95733C6666663CFE31593C22084C3CBB
:1041B00074F83E3CF311323CDE62253C9DF8183C1D
:1041C000AADF0C3C8223013C1E9DEB3B3BD4D53B3C
:1041D0009FFCC03B2D24AD3B5A569A3B279C883B05
:1041E00048F86F3BEEF4503BCD31343BD9AD193B31
:1041F0009C63013BCE92D63A31A3AE3ABFD58A3A00
:104200003402563A9FEB1D3A3CFCD9399A8D8539D8
:104210006D58F6385E170A369B0BC4B8BF7F33B9AA
:10422000A66C74B9A27993B9FE99A6B989A1B4B95B
:10423000A691BEB96E60C5B959F6C9B9242CCDB9DD
:10424000EFC8CFB99E80D2B97DF2D5B92CA8DAB922
:10425000D114E1B9FFFFFFFFFFFFFFFF48523A20F3
:104260002533642053504F323A202533642048527E
:104270005F4156473A2025362E32662053504F3242
:104280005F4156473A2025362E326620423A202595
:10429000386420413A2025386420433A2025362EC0
:1042A00032660A004E6F726D616C20425000000051
:1042B000496E73756666696369656E7420446174DE
:1042C000610000004D696C64204879706F74656E00
:1042D00073696F6E00000000536576657265204853
:1042E00079706F74656E73696F6E00004D6F6465F1
:1042F00072617465204879706F74656E73696F6E52
:10430000000000002443000800000020C00000005E
:1043100078350008E4430008C00000209018000031
:1043200088350008000000000000000000000000C8
:10433000000000000000000000000000000000007D
:10434000000000000000000000000000000000006D
:10435000000000000000000000000000000000005D
:10436000000000000000000000000000000000004D
:104370000000000000000000B0420008A442000855
:10438000C4420008EC420008D842000800000000C7
:10439000000000000000000000000000010000001C
:1043A000010000000000000000000000000000000C
:1043B00000000000000000000000000000000102FA
:1043C00003040102030406070809020406080000AA
:1043D00000A24A04000000000000000001020304E3
:0443E00006070809BB
:0400000508000131BD
:00000001FF
